:100000000C9434000C943E000C943E000C943E0082
:100010000C943E000C943E000C943E000C943E0068
:100020000C943E000C943E000C943E000C943E0058
:100030000C943E000C943E000C943E000C943E0048
:100040000C943E000C943E000C943E000C943E0038
:100050000C943E000C943E000C943E000C943E0028
:100060000C943E000C943E0011241FBECFEFD8E04C
:10007000DEBFCDBF0E9440000C9454000C940000E1
:100080001AB88FEF84B94D9906C083ED90E30197BC
:10009000F1F700C000004E99F6CF83ED90E3019791
:0C00A000F1F700C00000EFCFF894FFCF94
:00000001FF
